{
	"data": {
		"bytecode": {
			"linkReferences": {},
			"object": "60806040526001600055633b9aca00600155670de0b6b3a764000060025534801561002957600080fd5b506101fe806100396000396000f3fe608060405234801561001057600080fd5b50600436106100625760003560e01c80633173d589146100675780634fb2e0be1461008557806397e6852e146100a3578063a1b1df9c146100c1578063b685bcfa146100df578063d297a89f146100fd575b600080fd5b61006f61011b565b60405161007c9190610179565b60405180910390f35b61008d61012f565b60405161009a91906101ad565b60405180910390f35b6100ab610135565b6040516100b891906101ad565b60405180910390f35b6100c961013b565b6040516100d69190610179565b60405180910390f35b6100e7610148565b6040516100f49190610179565b60405180910390f35b610105610158565b60405161011291906101ad565b60405180910390f35b6000670de0b6b3a764000060025414905090565b60005481565b60015481565b6000600160005414905090565b6000633b9aca0060015414905090565b60025481565b60008115159050919050565b6101738161015e565b82525050565b600060208201905061018e600083018461016a565b92915050565b6000819050919050565b6101a781610194565b82525050565b60006020820190506101c2600083018461019e565b9291505056fea26469706673582212204284e9b399c0c6ecb8971ad6d61ac8ea7eaa8582655c938beb9333e6066892bf64736f6c634300080c0033",
			"opcodes": "PUSH1 0x80 PUSH1 0x40 MSTORE PUSH1 0x1 PUSH1 0x0 SSTORE PUSH4 0x3B9ACA00 PUSH1 0x1 SSTORE PUSH8 0xDE0B6B3A7640000 PUSH1 0x2 SSTORE CALLVALUE DUP1 ISZERO PUSH2 0x29 JUMPI PUSH1 0x0 DUP1 REVERT JUMPDEST POP PUSH2 0x1FE DUP1 PUSH2 0x39 PUSH1 0x0 CODECOPY PUSH1 0x0 RETURN INVALID PUSH1 0x80 PUSH1 0x40 MSTORE CALLVALUE DUP1 ISZERO PUSH2 0x10 JUMPI PUSH1 0x0 DUP1 REVERT JUMPDEST POP PUSH1 0x4 CALLDATASIZE LT PUSH2 0x62 JUMPI PUSH1 0x0 CALLDATALOAD PUSH1 0xE0 SHR DUP1 PUSH4 0x3173D589 EQ PUSH2 0x67 JUMPI DUP1 PUSH4 0x4FB2E0BE EQ PUSH2 0x85 JUMPI DUP1 PUSH4 0x97E6852E EQ PUSH2 0xA3 JUMPI DUP1 PUSH4 0xA1B1DF9C EQ PUSH2 0xC1 JUMPI DUP1 PUSH4 0xB685BCFA EQ PUSH2 0xDF JUMPI DUP1 PUSH4 0xD297A89F EQ PUSH2 0xFD JUMPI JUMPDEST PUSH1 0x0 DUP1 REVERT JUMPDEST PUSH2 0x6F PUSH2 0x11B JUMP JUMPDEST PUSH1 0x40 MLOAD PUSH2 0x7C SWAP2 SWAP1 PUSH2 0x179 JUMP JUMPDEST PUSH1 0x40 MLOAD DUP1 SWAP2 SUB SWAP1 RETURN JUMPDEST PUSH2 0x8D PUSH2 0x12F JUMP JUMPDEST PUSH1 0x40 MLOAD PUSH2 0x9A SWAP2 SWAP1 PUSH2 0x1AD JUMP JUMPDEST PUSH1 0x40 MLOAD DUP1 SWAP2 SUB SWAP1 RETURN JUMPDEST PUSH2 0xAB PUSH2 0x135 JUMP JUMPDEST PUSH1 0x40 MLOAD PUSH2 0xB8 SWAP2 SWAP1 PUSH2 0x1AD JUMP JUMPDEST PUSH1 0x40 MLOAD DUP1 SWAP2 SUB SWAP1 RETURN JUMPDEST PUSH2 0xC9 PUSH2 0x13B JUMP JUMPDEST PUSH1 0x40 MLOAD PUSH2 0xD6 SWAP2 SWAP1 PUSH2 0x179 JUMP JUMPDEST PUSH1 0x40 MLOAD DUP1 SWAP2 SUB SWAP1 RETURN JUMPDEST PUSH2 0xE7 PUSH2 0x148 JUMP JUMPDEST PUSH1 0x40 MLOAD PUSH2 0xF4 SWAP2 SWAP1 PUSH2 0x179 JUMP JUMPDEST PUSH1 0x40 MLOAD DUP1 SWAP2 SUB SWAP1 RETURN JUMPDEST PUSH2 0x105 PUSH2 0x158 JUMP JUMPDEST PUSH1 0x40 MLOAD PUSH2 0x112 SWAP2 SWAP1 PUSH2 0x1AD JUMP JUMPDEST PUSH1 0x40 MLOAD DUP1 SWAP2 SUB SWAP1 RETURN JUMPDEST PUSH1 0x0 PUSH8 0xDE0B6B3A7640000 PUSH1 0x2 SLOAD EQ SWAP1 POP SWAP1 JUMP JUMPDEST PUSH1 0x0 SLOAD DUP2 JUMP JUMPDEST PUSH1 0x1 SLOAD DUP2 JUMP JUMPDEST PUSH1 0x0 PUSH1 0x1 PUSH1 0x0 SLOAD EQ SWAP1 POP SWAP1 JUMP JUMPDEST PUSH1 0x0 PUSH4 0x3B9ACA00 PUSH1 0x1 SLOAD EQ SWAP1 POP SWAP1 JUMP JUMPDEST PUSH1 0x2 SLOAD DUP2 JUMP JUMPDEST PUSH1 0x0 DUP2 ISZERO ISZERO SWAP1 POP SWAP2 SWAP1 POP JUMP JUMPDEST PUSH2 0x173 DUP2 PUSH2 0x15E JUMP JUMPDEST DUP3 MSTORE POP POP JUMP JUMPDEST PUSH1 0x0 PUSH1 0x20 DUP3 ADD SWAP1 POP PUSH2 0x18E PUSH1 0x0 DUP4 ADD DUP5 PUSH2 0x16A JUMP JUMPDEST SWAP3 SWAP2 POP POP JUMP JUMPDEST PUSH1 0x0 DUP2 SWAP1 POP SWAP2 SWAP1 POP JUMP JUMPDEST PUSH2 0x1A7 DUP2 PUSH2 0x194 JUMP JUMPDEST DUP3 MSTORE POP POP JUMP JUMPDEST PUSH1 0x0 PUSH1 0x20 DUP3 ADD SWAP1 POP PUSH2 0x1C2 PUSH1 0x0 DUP4 ADD DUP5 PUSH2 0x19E JUMP JUMPDEST SWAP3 SWAP2 POP POP JUMP INVALID LOG2 PUSH5 0x6970667358 0x22 SLT KECCAK256 TIMESTAMP DUP5 0xE9 0xB3 SWAP10 0xC0 0xC6 0xEC 0xB8 SWAP8 BYTE 0xD6 0xD6 BYTE 0xC8 0xEA PUSH31 0xAA8582655C938BEB9333E6066892BF64736F6C634300080C00330000000000 "
		},
		"gasEstimates": {
			"creation": {
				"codeDepositCost": "102000",
				"executionCost": "66465",
				"totalCost": "168465"
			},
			"external": {
				"oneEther()": "2517",
				"oneGWei()": "2451",
				"oneWei()": "2429",
				"testOneEther()": "2427",
				"testOneGWei()": "2515",
				"testOneWei()": "2493"
			}
		},
		"methodIdentifiers": {
			"oneEther()": "d297a89f",
			"oneGWei()": "97e6852e",
			"oneWei()": "4fb2e0be",
			"testOneEther()": "3173d589",
			"testOneGWei()": "b685bcfa",
			"testOneWei()": "a1b1df9c"
		}
	},
	"abi": [
		{
			"inputs": [],
			"name": "oneEther",
			"outputs": [
				{
					"internalType": "uint256",
					"name": "",
					"type": "uint256"
				}
			],
			"stateMutability": "view",
			"type": "function"
		},
		{
			"inputs": [],
			"name": "oneGWei",
			"outputs": [
				{
					"internalType": "uint256",
					"name": "",
					"type": "uint256"
				}
			],
			"stateMutability": "view",
			"type": "function"
		},
		{
			"inputs": [],
			"name": "oneWei",
			"outputs": [
				{
					"internalType": "uint256",
					"name": "",
					"type": "uint256"
				}
			],
			"stateMutability": "view",
			"type": "function"
		},
		{
			"inputs": [],
			"name": "testOneEther",
			"outputs": [
				{
					"internalType": "bool",
					"name": "",
					"type": "bool"
				}
			],
			"stateMutability": "view",
			"type": "function"
		},
		{
			"inputs": [],
			"name": "testOneGWei",
			"outputs": [
				{
					"internalType": "bool",
					"name": "",
					"type": "bool"
				}
			],
			"stateMutability": "view",
			"type": "function"
		},
		{
			"inputs": [],
			"name": "testOneWei",
			"outputs": [
				{
					"internalType": "bool",
					"name": "",
					"type": "bool"
				}
			],
			"stateMutability": "view",
			"type": "function"
		}
	]
}