{
	"data": {
		"bytecode": {
			"linkReferences": {},
			"object": "608060405234801561001057600080fd5b50610966806100206000396000f3fe608060405234801561001057600080fd5b50600436106100575760003560e01c8063455f50241461005c57806386533f6c14610078578063a78b86ea14610094578063b6a46b3b146100c5578063dd68afb6146100e1575b600080fd5b610076600480360381019061007191906104fd565b610111565b005b610092600480360381019061008d9190610670565b610168565b005b6100ae60048036038101906100a991906104fd565b6101ab565b6040516100bc92919061076f565b60405180910390f35b6100df60048036038101906100da919061079f565b610280565b005b6100fb60048036038101906100f691906104fd565b61030b565b604051610108919061087e565b60405180910390f35b6000808281548110610126576101256108a0565b5b906000526020600020906002020190508060010160009054906101000a900460ff16158160010160006101000a81548160ff0219169083151502179055505050565b600080838154811061017d5761017c6108a0565b5b90600052602060002090600202019050818160000190805190602001906101a59291906103f4565b50505050565b6060600080600084815481106101c4576101c36108a0565b5b90600052602060002090600202019050806000018160010160009054906101000a900460ff168180546101f6906108fe565b80601f0160208091040260200160405190810160405280929190818152602001828054610222906108fe565b801561026f5780601f106102445761010080835404028352916020019161026f565b820191906000526020600020905b81548152906001019060200180831161025257829003601f168201915b505050505091509250925050915091565b60006040518060400160405280838152602001600015158152509050600081908060018154018082558091505060019003906000526020600020906002020160009091909190915060008201518160000190805190602001906102e49291906103f4565b5060208201518160010160006101000a81548160ff02191690831515021790555050505050565b61031361047a565b60008281548110610327576103266108a0565b5b9060005260206000209060020201604051806040016040529081600082018054610350906108fe565b80601f016020809104026020016040519081016040528092919081815260200182805461037c906108fe565b80156103c95780601f1061039e576101008083540402835291602001916103c9565b820191906000526020600020905b8154815290600101906020018083116103ac57829003601f168201915b505050505081526020016001820160009054906101000a900460ff1615151515815250509050919050565b828054610400906108fe565b90600052602060002090601f0160209004810192826104225760008555610469565b82601f1061043b57805160ff1916838001178555610469565b82800160010185558215610469579182015b8281111561046857825182559160200191906001019061044d565b5b5090506104769190610496565b5090565b6040518060400160405280606081526020016000151581525090565b5b808211156104af576000816000905550600101610497565b5090565b6000604051905090565b600080fd5b600080fd5b6000819050919050565b6104da816104c7565b81146104e557600080fd5b50565b6000813590506104f7816104d1565b92915050565b600060208284031215610513576105126104bd565b5b6000610521848285016104e8565b91505092915050565b600080fd5b600080fd5b6000601f19601f8301169050919050565b7f4e487b7100000000000000000000000000000000000000000000000000000000600052604160045260246000fd5b61057d82610534565b810181811067ffffffffffffffff8211171561059c5761059b610545565b5b80604052505050565b60006105af6104b3565b90506105bb8282610574565b919050565b600067ffffffffffffffff8211156105db576105da610545565b5b6105e482610534565b9050602081019050919050565b82818337600083830152505050565b600061061361060e846105c0565b6105a5565b90508281526020810184848401111561062f5761062e61052f565b5b61063a8482856105f1565b509392505050565b600082601f8301126106575761065661052a565b5b8135610667848260208601610600565b91505092915050565b60008060408385031215610687576106866104bd565b5b6000610695858286016104e8565b925050602083013567ffffffffffffffff8111156106b6576106b56104c2565b5b6106c285828601610642565b9150509250929050565b600081519050919050565b600082825260208201905092915050565b60005b838110156107065780820151818401526020810190506106eb565b83811115610715576000848401525b50505050565b6000610726826106cc565b61073081856106d7565b93506107408185602086016106e8565b61074981610534565b840191505092915050565b60008115159050919050565b61076981610754565b82525050565b60006040820190508181036000830152610789818561071b565b90506107986020830184610760565b9392505050565b6000602082840312156107b5576107b46104bd565b5b600082013567ffffffffffffffff8111156107d3576107d26104c2565b5b6107df84828501610642565b91505092915050565b600082825260208201905092915050565b6000610804826106cc565b61080e81856107e8565b935061081e8185602086016106e8565b61082781610534565b840191505092915050565b61083b81610754565b82525050565b6000604083016000830151848203600086015261085e82826107f9565b91505060208301516108736020860182610832565b508091505092915050565b600060208201905081810360008301526108988184610841565b905092915050565b7f4e487b7100000000000000000000000000000000000000000000000000000000600052603260045260246000fd5b7f4e487b7100000000000000000000000000000000000000000000000000000000600052602260045260246000fd5b6000600282049050600182168061091657607f821691505b6020821081141561092a576109296108cf565b5b5091905056fea26469706673582212200313fdaf652d51348fcd0b5d7ec66658ea055c65e6240838e31fa1e02f99f2f464736f6c634300080c0033",
			"opcodes": "PUSH1 0x80 PUSH1 0x40 MSTORE CALLVALUE DUP1 ISZERO PUSH2 0x10 JUMPI PUSH1 0x0 DUP1 REVERT JUMPDEST POP PUSH2 0x966 DUP1 PUSH2 0x20 PUSH1 0x0 CODECOPY PUSH1 0x0 RETURN INVALID PUSH1 0x80 PUSH1 0x40 MSTORE CALLVALUE DUP1 ISZERO PUSH2 0x10 JUMPI PUSH1 0x0 DUP1 REVERT JUMPDEST POP PUSH1 0x4 CALLDATASIZE LT PUSH2 0x57 JUMPI PUSH1 0x0 CALLDATALOAD PUSH1 0xE0 SHR DUP1 PUSH4 0x455F5024 EQ PUSH2 0x5C JUMPI DUP1 PUSH4 0x86533F6C EQ PUSH2 0x78 JUMPI DUP1 PUSH4 0xA78B86EA EQ PUSH2 0x94 JUMPI DUP1 PUSH4 0xB6A46B3B EQ PUSH2 0xC5 JUMPI DUP1 PUSH4 0xDD68AFB6 EQ PUSH2 0xE1 JUMPI JUMPDEST PUSH1 0x0 DUP1 REVERT JUMPDEST PUSH2 0x76 PUSH1 0x4 DUP1 CALLDATASIZE SUB DUP2 ADD SWAP1 PUSH2 0x71 SWAP2 SWAP1 PUSH2 0x4FD JUMP JUMPDEST PUSH2 0x111 JUMP JUMPDEST STOP JUMPDEST PUSH2 0x92 PUSH1 0x4 DUP1 CALLDATASIZE SUB DUP2 ADD SWAP1 PUSH2 0x8D SWAP2 SWAP1 PUSH2 0x670 JUMP JUMPDEST PUSH2 0x168 JUMP JUMPDEST STOP JUMPDEST PUSH2 0xAE PUSH1 0x4 DUP1 CALLDATASIZE SUB DUP2 ADD SWAP1 PUSH2 0xA9 SWAP2 SWAP1 PUSH2 0x4FD JUMP JUMPDEST PUSH2 0x1AB JUMP JUMPDEST PUSH1 0x40 MLOAD PUSH2 0xBC SWAP3 SWAP2 SWAP1 PUSH2 0x76F JUMP JUMPDEST PUSH1 0x40 MLOAD DUP1 SWAP2 SUB SWAP1 RETURN JUMPDEST PUSH2 0xDF PUSH1 0x4 DUP1 CALLDATASIZE SUB DUP2 ADD SWAP1 PUSH2 0xDA SWAP2 SWAP1 PUSH2 0x79F JUMP JUMPDEST PUSH2 0x280 JUMP JUMPDEST STOP JUMPDEST PUSH2 0xFB PUSH1 0x4 DUP1 CALLDATASIZE SUB DUP2 ADD SWAP1 PUSH2 0xF6 SWAP2 SWAP1 PUSH2 0x4FD JUMP JUMPDEST PUSH2 0x30B JUMP JUMPDEST PUSH1 0x40 MLOAD PUSH2 0x108 SWAP2 SWAP1 PUSH2 0x87E JUMP JUMPDEST PUSH1 0x40 MLOAD DUP1 SWAP2 SUB SWAP1 RETURN JUMPDEST PUSH1 0x0 DUP1 DUP3 DUP2 SLOAD DUP2 LT PUSH2 0x126 JUMPI PUSH2 0x125 PUSH2 0x8A0 JUMP JUMPDEST JUMPDEST SWAP1 PUSH1 0x0 MSTORE PUSH1 0x20 PUSH1 0x0 KECCAK256 SWAP1 PUSH1 0x2 MUL ADD SWAP1 POP DUP1 PUSH1 0x1 ADD PUSH1 0x0 SWAP1 SLOAD SWAP1 PUSH2 0x100 EXP SWAP1 DIV PUSH1 0xFF AND ISZERO DUP2 PUSH1 0x1 ADD PUSH1 0x0 PUSH2 0x100 EXP DUP2 SLOAD DUP2 PUSH1 0xFF MUL NOT AND SWAP1 DUP4 ISZERO ISZERO MUL OR SWAP1 SSTORE POP POP POP JUMP JUMPDEST PUSH1 0x0 DUP1 DUP4 DUP2 SLOAD DUP2 LT PUSH2 0x17D JUMPI PUSH2 0x17C PUSH2 0x8A0 JUMP JUMPDEST JUMPDEST SWAP1 PUSH1 0x0 MSTORE PUSH1 0x20 PUSH1 0x0 KECCAK256 SWAP1 PUSH1 0x2 MUL ADD SWAP1 POP DUP2 DUP2 PUSH1 0x0 ADD SWAP1 DUP1 MLOAD SWAP1 PUSH1 0x20 ADD SWAP1 PUSH2 0x1A5 SWAP3 SWAP2 SWAP1 PUSH2 0x3F4 JUMP JUMPDEST POP POP POP POP JUMP JUMPDEST PUSH1 0x60 PUSH1 0x0 DUP1 PUSH1 0x0 DUP5 DUP2 SLOAD DUP2 LT PUSH2 0x1C4 JUMPI PUSH2 0x1C3 PUSH2 0x8A0 JUMP JUMPDEST JUMPDEST SWAP1 PUSH1 0x0 MSTORE PUSH1 0x20 PUSH1 0x0 KECCAK256 SWAP1 PUSH1 0x2 MUL ADD SWAP1 POP DUP1 PUSH1 0x0 ADD DUP2 PUSH1 0x1 ADD PUSH1 0x0 SWAP1 SLOAD SWAP1 PUSH2 0x100 EXP SWAP1 DIV PUSH1 0xFF AND DUP2 DUP1 SLOAD PUSH2 0x1F6 SWAP1 PUSH2 0x8FE JUMP JUMPDEST DUP1 PUSH1 0x1F ADD PUSH1 0x20 DUP1 SWAP2 DIV MUL PUSH1 0x20 ADD PUSH1 0x40 MLOAD SWAP1 DUP2 ADD PUSH1 0x40 MSTORE DUP1 SWAP3 SWAP2 SWAP1 DUP2 DUP2 MSTORE PUSH1 0x20 ADD DUP3 DUP1 SLOAD PUSH2 0x222 SWAP1 PUSH2 0x8FE JUMP JUMPDEST DUP1 ISZERO PUSH2 0x26F JUMPI DUP1 PUSH1 0x1F LT PUSH2 0x244 JUMPI PUSH2 0x100 DUP1 DUP4 SLOAD DIV MUL DUP4 MSTORE SWAP2 PUSH1 0x20 ADD SWAP2 PUSH2 0x26F JUMP JUMPDEST DUP3 ADD SWAP2 SWAP1 PUSH1 0x0 MSTORE PUSH1 0x20 PUSH1 0x0 KECCAK256 SWAP1 JUMPDEST DUP2 SLOAD DUP2 MSTORE SWAP1 PUSH1 0x1 ADD SWAP1 PUSH1 0x20 ADD DUP1 DUP4 GT PUSH2 0x252 JUMPI DUP3 SWAP1 SUB PUSH1 0x1F AND DUP3 ADD SWAP2 JUMPDEST POP POP POP POP POP SWAP2 POP SWAP3 POP SWAP3 POP POP SWAP2 POP SWAP2 JUMP JUMPDEST PUSH1 0x0 PUSH1 0x40 MLOAD DUP1 PUSH1 0x40 ADD PUSH1 0x40 MSTORE DUP1 DUP4 DUP2 MSTORE PUSH1 0x20 ADD PUSH1 0x0 ISZERO ISZERO DUP2 MSTORE POP SWAP1 POP PUSH1 0x0 DUP2 SWAP1 DUP1 PUSH1 0x1 DUP2 SLOAD ADD DUP1 DUP3 SSTORE DUP1 SWAP2 POP POP PUSH1 0x1 SWAP1 SUB SWAP1 PUSH1 0x0 MSTORE PUSH1 0x20 PUSH1 0x0 KECCAK256 SWAP1 PUSH1 0x2 MUL ADD PUSH1 0x0 SWAP1 SWAP2 SWAP1 SWAP2 SWAP1 SWAP2 POP PUSH1 0x0 DUP3 ADD MLOAD DUP2 PUSH1 0x0 ADD SWAP1 DUP1 MLOAD SWAP1 PUSH1 0x20 ADD SWAP1 PUSH2 0x2E4 SWAP3 SWAP2 SWAP1 PUSH2 0x3F4 JUMP JUMPDEST POP PUSH1 0x20 DUP3 ADD MLOAD DUP2 PUSH1 0x1 ADD PUSH1 0x0 PUSH2 0x100 EXP DUP2 SLOAD DUP2 PUSH1 0xFF MUL NOT AND SWAP1 DUP4 ISZERO ISZERO MUL OR SWAP1 SSTORE POP POP POP POP POP JUMP JUMPDEST PUSH2 0x313 PUSH2 0x47A JUMP JUMPDEST PUSH1 0x0 DUP3 DUP2 SLOAD DUP2 LT PUSH2 0x327 JUMPI PUSH2 0x326 PUSH2 0x8A0 JUMP JUMPDEST JUMPDEST SWAP1 PUSH1 0x0 MSTORE PUSH1 0x20 PUSH1 0x0 KECCAK256 SWAP1 PUSH1 0x2 MUL ADD PUSH1 0x40 MLOAD DUP1 PUSH1 0x40 ADD PUSH1 0x40 MSTORE SWAP1 DUP2 PUSH1 0x0 DUP3 ADD DUP1 SLOAD PUSH2 0x350 SWAP1 PUSH2 0x8FE JUMP JUMPDEST DUP1 PUSH1 0x1F ADD PUSH1 0x20 DUP1 SWAP2 DIV MUL PUSH1 0x20 ADD PUSH1 0x40 MLOAD SWAP1 DUP2 ADD PUSH1 0x40 MSTORE DUP1 SWAP3 SWAP2 SWAP1 DUP2 DUP2 MSTORE PUSH1 0x20 ADD DUP3 DUP1 SLOAD PUSH2 0x37C SWAP1 PUSH2 0x8FE JUMP JUMPDEST DUP1 ISZERO PUSH2 0x3C9 JUMPI DUP1 PUSH1 0x1F LT PUSH2 0x39E JUMPI PUSH2 0x100 DUP1 DUP4 SLOAD DIV MUL DUP4 MSTORE SWAP2 PUSH1 0x20 ADD SWAP2 PUSH2 0x3C9 JUMP JUMPDEST DUP3 ADD SWAP2 SWAP1 PUSH1 0x0 MSTORE PUSH1 0x20 PUSH1 0x0 KECCAK256 SWAP1 JUMPDEST DUP2 SLOAD DUP2 MSTORE SWAP1 PUSH1 0x1 ADD SWAP1 PUSH1 0x20 ADD DUP1 DUP4 GT PUSH2 0x3AC JUMPI DUP3 SWAP1 SUB PUSH1 0x1F AND DUP3 ADD SWAP2 JUMPDEST POP POP POP POP POP DUP2 MSTORE PUSH1 0x20 ADD PUSH1 0x1 DUP3 ADD PUSH1 0x0 SWAP1 SLOAD SWAP1 PUSH2 0x100 EXP SWAP1 DIV PUSH1 0xFF AND ISZERO ISZERO ISZERO ISZERO DUP2 MSTORE POP POP SWAP1 POP SWAP2 SWAP1 POP JUMP JUMPDEST DUP3 DUP1 SLOAD PUSH2 0x400 SWAP1 PUSH2 0x8FE JUMP JUMPDEST SWAP1 PUSH1 0x0 MSTORE PUSH1 0x20 PUSH1 0x0 KECCAK256 SWAP1 PUSH1 0x1F ADD PUSH1 0x20 SWAP1 DIV DUP2 ADD SWAP3 DUP3 PUSH2 0x422 JUMPI PUSH1 0x0 DUP6 SSTORE PUSH2 0x469 JUMP JUMPDEST DUP3 PUSH1 0x1F LT PUSH2 0x43B JUMPI DUP1 MLOAD PUSH1 0xFF NOT AND DUP4 DUP1 ADD OR DUP6 SSTORE PUSH2 0x469 JUMP JUMPDEST DUP3 DUP1 ADD PUSH1 0x1 ADD DUP6 SSTORE DUP3 ISZERO PUSH2 0x469 JUMPI SWAP2 DUP3 ADD JUMPDEST DUP3 DUP2 GT ISZERO PUSH2 0x468 JUMPI DUP3 MLOAD DUP3 SSTORE SWAP2 PUSH1 0x20 ADD SWAP2 SWAP1 PUSH1 0x1 ADD SWAP1 PUSH2 0x44D JUMP JUMPDEST JUMPDEST POP SWAP1 POP PUSH2 0x476 SWAP2 SWAP1 PUSH2 0x496 JUMP JUMPDEST POP SWAP1 JUMP JUMPDEST PUSH1 0x40 MLOAD DUP1 PUSH1 0x40 ADD PUSH1 0x40 MSTORE DUP1 PUSH1 0x60 DUP2 MSTORE PUSH1 0x20 ADD PUSH1 0x0 ISZERO ISZERO DUP2 MSTORE POP SWAP1 JUMP JUMPDEST JUMPDEST DUP1 DUP3 GT ISZERO PUSH2 0x4AF JUMPI PUSH1 0x0 DUP2 PUSH1 0x0 SWAP1 SSTORE POP PUSH1 0x1 ADD PUSH2 0x497 JUMP JUMPDEST POP SWAP1 JUMP JUMPDEST PUSH1 0x0 PUSH1 0x40 MLOAD SWAP1 POP SWAP1 JUMP JUMPDEST PUSH1 0x0 DUP1 REVERT JUMPDEST PUSH1 0x0 DUP1 REVERT JUMPDEST PUSH1 0x0 DUP2 SWAP1 POP SWAP2 SWAP1 POP JUMP JUMPDEST PUSH2 0x4DA DUP2 PUSH2 0x4C7 JUMP JUMPDEST DUP2 EQ PUSH2 0x4E5 JUMPI PUSH1 0x0 DUP1 REVERT JUMPDEST POP JUMP JUMPDEST PUSH1 0x0 DUP2 CALLDATALOAD SWAP1 POP PUSH2 0x4F7 DUP2 PUSH2 0x4D1 JUMP JUMPDEST SWAP3 SWAP2 POP POP JUMP JUMPDEST PUSH1 0x0 PUSH1 0x20 DUP3 DUP5 SUB SLT ISZERO PUSH2 0x513 JUMPI PUSH2 0x512 PUSH2 0x4BD JUMP JUMPDEST JUMPDEST PUSH1 0x0 PUSH2 0x521 DUP5 DUP3 DUP6 ADD PUSH2 0x4E8 JUMP JUMPDEST SWAP2 POP POP SWAP3 SWAP2 POP POP JUMP JUMPDEST PUSH1 0x0 DUP1 REVERT JUMPDEST PUSH1 0x0 DUP1 REVERT JUMPDEST PUSH1 0x0 PUSH1 0x1F NOT PUSH1 0x1F DUP4 ADD AND SWAP1 POP SWAP2 SWAP1 POP JUMP JUMPDEST PUSH32 0x4E487B7100000000000000000000000000000000000000000000000000000000 PUSH1 0x0 MSTORE PUSH1 0x41 PUSH1 0x4 MSTORE PUSH1 0x24 PUSH1 0x0 REVERT JUMPDEST PUSH2 0x57D DUP3 PUSH2 0x534 JUMP JUMPDEST DUP2 ADD DUP2 DUP2 LT PUSH8 0xFFFFFFFFFFFFFFFF DUP3 GT OR ISZERO PUSH2 0x59C JUMPI PUSH2 0x59B PUSH2 0x545 JUMP JUMPDEST JUMPDEST DUP1 PUSH1 0x40 MSTORE POP POP POP JUMP JUMPDEST PUSH1 0x0 PUSH2 0x5AF PUSH2 0x4B3 JUMP JUMPDEST SWAP1 POP PUSH2 0x5BB DUP3 DUP3 PUSH2 0x574 JUMP JUMPDEST SWAP2 SWAP1 POP JUMP JUMPDEST PUSH1 0x0 PUSH8 0xFFFFFFFFFFFFFFFF DUP3 GT ISZERO PUSH2 0x5DB JUMPI PUSH2 0x5DA PUSH2 0x545 JUMP JUMPDEST JUMPDEST PUSH2 0x5E4 DUP3 PUSH2 0x534 JUMP JUMPDEST SWAP1 POP PUSH1 0x20 DUP2 ADD SWAP1 POP SWAP2 SWAP1 POP JUMP JUMPDEST DUP3 DUP2 DUP4 CALLDATACOPY PUSH1 0x0 DUP4 DUP4 ADD MSTORE POP POP POP JUMP JUMPDEST PUSH1 0x0 PUSH2 0x613 PUSH2 0x60E DUP5 PUSH2 0x5C0 JUMP JUMPDEST PUSH2 0x5A5 JUMP JUMPDEST SWAP1 POP DUP3 DUP2 MSTORE PUSH1 0x20 DUP2 ADD DUP5 DUP5 DUP5 ADD GT ISZERO PUSH2 0x62F JUMPI PUSH2 0x62E PUSH2 0x52F JUMP JUMPDEST JUMPDEST PUSH2 0x63A DUP5 DUP3 DUP6 PUSH2 0x5F1 JUMP JUMPDEST POP SWAP4 SWAP3 POP POP POP JUMP JUMPDEST PUSH1 0x0 DUP3 PUSH1 0x1F DUP4 ADD SLT PUSH2 0x657 JUMPI PUSH2 0x656 PUSH2 0x52A JUMP JUMPDEST JUMPDEST DUP2 CALLDATALOAD PUSH2 0x667 DUP5 DUP3 PUSH1 0x20 DUP7 ADD PUSH2 0x600 JUMP JUMPDEST SWAP2 POP POP SWAP3 SWAP2 POP POP JUMP JUMPDEST PUSH1 0x0 DUP1 PUSH1 0x40 DUP4 DUP6 SUB SLT ISZERO PUSH2 0x687 JUMPI PUSH2 0x686 PUSH2 0x4BD JUMP JUMPDEST JUMPDEST PUSH1 0x0 PUSH2 0x695 DUP6 DUP3 DUP7 ADD PUSH2 0x4E8 JUMP JUMPDEST SWAP3 POP POP PUSH1 0x20 DUP4 ADD CALLDATALOAD PUSH8 0xFFFFFFFFFFFFFFFF DUP2 GT ISZERO PUSH2 0x6B6 JUMPI PUSH2 0x6B5 PUSH2 0x4C2 JUMP JUMPDEST JUMPDEST PUSH2 0x6C2 DUP6 DUP3 DUP7 ADD PUSH2 0x642 JUMP JUMPDEST SWAP2 POP POP SWAP3 POP SWAP3 SWAP1 POP JUMP JUMPDEST PUSH1 0x0 DUP2 MLOAD SWAP1 POP SWAP2 SWAP1 POP JUMP JUMPDEST PUSH1 0x0 DUP3 DUP3 MSTORE PUSH1 0x20 DUP3 ADD SWAP1 POP SWAP3 SWAP2 POP POP JUMP JUMPDEST PUSH1 0x0 JUMPDEST DUP4 DUP2 LT ISZERO PUSH2 0x706 JUMPI DUP1 DUP3 ADD MLOAD DUP2 DUP5 ADD MSTORE PUSH1 0x20 DUP2 ADD SWAP1 POP PUSH2 0x6EB JUMP JUMPDEST DUP4 DUP2 GT ISZERO PUSH2 0x715 JUMPI PUSH1 0x0 DUP5 DUP5 ADD MSTORE JUMPDEST POP POP POP POP JUMP JUMPDEST PUSH1 0x0 PUSH2 0x726 DUP3 PUSH2 0x6CC JUMP JUMPDEST PUSH2 0x730 DUP2 DUP6 PUSH2 0x6D7 JUMP JUMPDEST SWAP4 POP PUSH2 0x740 DUP2 DUP6 PUSH1 0x20 DUP7 ADD PUSH2 0x6E8 JUMP JUMPDEST PUSH2 0x749 DUP2 PUSH2 0x534 JUMP JUMPDEST DUP5 ADD SWAP2 POP POP SWAP3 SWAP2 POP POP JUMP JUMPDEST PUSH1 0x0 DUP2 ISZERO ISZERO SWAP1 POP SWAP2 SWAP1 POP JUMP JUMPDEST PUSH2 0x769 DUP2 PUSH2 0x754 JUMP JUMPDEST DUP3 MSTORE POP POP JUMP JUMPDEST PUSH1 0x0 PUSH1 0x40 DUP3 ADD SWAP1 POP DUP2 DUP2 SUB PUSH1 0x0 DUP4 ADD MSTORE PUSH2 0x789 DUP2 DUP6 PUSH2 0x71B JUMP JUMPDEST SWAP1 POP PUSH2 0x798 PUSH1 0x20 DUP4 ADD DUP5 PUSH2 0x760 JUMP JUMPDEST SWAP4 SWAP3 POP POP POP JUMP JUMPDEST PUSH1 0x0 PUSH1 0x20 DUP3 DUP5 SUB SLT ISZERO PUSH2 0x7B5 JUMPI PUSH2 0x7B4 PUSH2 0x4BD JUMP JUMPDEST JUMPDEST PUSH1 0x0 DUP3 ADD CALLDATALOAD PUSH8 0xFFFFFFFFFFFFFFFF DUP2 GT ISZERO PUSH2 0x7D3 JUMPI PUSH2 0x7D2 PUSH2 0x4C2 JUMP JUMPDEST JUMPDEST PUSH2 0x7DF DUP5 DUP3 DUP6 ADD PUSH2 0x642 JUMP JUMPDEST SWAP2 POP POP SWAP3 SWAP2 POP POP JUMP JUMPDEST PUSH1 0x0 DUP3 DUP3 MSTORE PUSH1 0x20 DUP3 ADD SWAP1 POP SWAP3 SWAP2 POP POP JUMP JUMPDEST PUSH1 0x0 PUSH2 0x804 DUP3 PUSH2 0x6CC JUMP JUMPDEST PUSH2 0x80E DUP2 DUP6 PUSH2 0x7E8 JUMP JUMPDEST SWAP4 POP PUSH2 0x81E DUP2 DUP6 PUSH1 0x20 DUP7 ADD PUSH2 0x6E8 JUMP JUMPDEST PUSH2 0x827 DUP2 PUSH2 0x534 JUMP JUMPDEST DUP5 ADD SWAP2 POP POP SWAP3 SWAP2 POP POP JUMP JUMPDEST PUSH2 0x83B DUP2 PUSH2 0x754 JUMP JUMPDEST DUP3 MSTORE POP POP JUMP JUMPDEST PUSH1 0x0 PUSH1 0x40 DUP4 ADD PUSH1 0x0 DUP4 ADD MLOAD DUP5 DUP3 SUB PUSH1 0x0 DUP7 ADD MSTORE PUSH2 0x85E DUP3 DUP3 PUSH2 0x7F9 JUMP JUMPDEST SWAP2 POP POP PUSH1 0x20 DUP4 ADD MLOAD PUSH2 0x873 PUSH1 0x20 DUP7 ADD DUP3 PUSH2 0x832 JUMP JUMPDEST POP DUP1 SWAP2 POP POP SWAP3 SWAP2 POP POP JUMP JUMPDEST PUSH1 0x0 PUSH1 0x20 DUP3 ADD SWAP1 POP DUP2 DUP2 SUB PUSH1 0x0 DUP4 ADD MSTORE PUSH2 0x898 DUP2 DUP5 PUSH2 0x841 JUMP JUMPDEST SWAP1 POP SWAP3 SWAP2 POP POP JUMP JUMPDEST PUSH32 0x4E487B7100000000000000000000000000000000000000000000000000000000 PUSH1 0x0 MSTORE PUSH1 0x32 PUSH1 0x4 MSTORE PUSH1 0x24 PUSH1 0x0 REVERT JUMPDEST PUSH32 0x4E487B7100000000000000000000000000000000000000000000000000000000 PUSH1 0x0 MSTORE PUSH1 0x22 PUSH1 0x4 MSTORE PUSH1 0x24 PUSH1 0x0 REVERT JUMPDEST PUSH1 0x0 PUSH1 0x2 DUP3 DIV SWAP1 POP PUSH1 0x1 DUP3 AND DUP1 PUSH2 0x916 JUMPI PUSH1 0x7F DUP3 AND SWAP2 POP JUMPDEST PUSH1 0x20 DUP3 LT DUP2 EQ ISZERO PUSH2 0x92A JUMPI PUSH2 0x929 PUSH2 0x8CF JUMP JUMPDEST JUMPDEST POP SWAP2 SWAP1 POP JUMP INVALID LOG2 PUSH5 0x6970667358 0x22 SLT KECCAK256 SUB SGT REVERT 0xAF PUSH6 0x2D51348FCD0B 0x5D PUSH31 0xC66658EA055C65E6240838E31FA1E02F99F2F464736F6C634300080C003300 "
		},
		"gasEstimates": {
			"creation": {
				"codeDepositCost": "481200",
				"executionCost": "518",
				"totalCost": "481718"
			},
			"external": {
				"create(string)": "infinite",
				"getTodo(uint256)": "infinite",
				"getTodoDetail(uint256)": "infinite",
				"toggleCompleted(uint256)": "29006",
				"updateTask(uint256,string)": "infinite"
			}
		},
		"methodIdentifiers": {
			"create(string)": "b6a46b3b",
			"getTodo(uint256)": "dd68afb6",
			"getTodoDetail(uint256)": "a78b86ea",
			"toggleCompleted(uint256)": "455f5024",
			"updateTask(uint256,string)": "86533f6c"
		}
	},
	"abi": [
		{
			"inputs": [
				{
					"internalType": "string",
					"name": "_task",
					"type": "string"
				}
			],
			"name": "create",
			"outputs": [],
			"stateMutability": "nonpayable",
			"type": "function"
		},
		{
			"inputs": [
				{
					"internalType": "uint256",
					"name": "_idx",
					"type": "uint256"
				}
			],
			"name": "getTodo",
			"outputs": [
				{
					"components": [
						{
							"internalType": "string",
							"name": "task",
							"type": "string"
						},
						{
							"internalType": "bool",
							"name": "completed",
							"type": "bool"
						}
					],
					"internalType": "struct Struct.Todo",
					"name": "",
					"type": "tuple"
				}
			],
			"stateMutability": "view",
			"type": "function"
		},
		{
			"inputs": [
				{
					"internalType": "uint256",
					"name": "_idx",
					"type": "uint256"
				}
			],
			"name": "getTodoDetail",
			"outputs": [
				{
					"internalType": "string",
					"name": "task",
					"type": "string"
				},
				{
					"internalType": "bool",
					"name": "completed",
					"type": "bool"
				}
			],
			"stateMutability": "view",
			"type": "function"
		},
		{
			"inputs": [
				{
					"internalType": "uint256",
					"name": "_idx",
					"type": "uint256"
				}
			],
			"name": "toggleCompleted",
			"outputs": [],
			"stateMutability": "nonpayable",
			"type": "function"
		},
		{
			"inputs": [
				{
					"internalType": "uint256",
					"name": "_idx",
					"type": "uint256"
				},
				{
					"internalType": "string",
					"name": "_task",
					"type": "string"
				}
			],
			"name": "updateTask",
			"outputs": [],
			"stateMutability": "nonpayable",
			"type": "function"
		}
	]
}